{
  "contractName": "EtherWarshipHNP",
  "abi": [
    {
      "constant": true,
      "inputs": [],
      "name": "name",
      "outputs": [
        {
          "name": "_name",
          "type": "string"
        }
      ],
      "payable": false,
      "stateMutability": "view",
      "type": "function"
    },
    {
      "constant": true,
      "inputs": [],
      "name": "totalSupply",
      "outputs": [
        {
          "name": "_totalSupply",
          "type": "uint256"
        }
      ],
      "payable": false,
      "stateMutability": "view",
      "type": "function"
    },
    {
      "constant": true,
      "inputs": [],
      "name": "decimals",
      "outputs": [
        {
          "name": "_decimals",
          "type": "uint8"
        }
      ],
      "payable": false,
      "stateMutability": "view",
      "type": "function"
    },
    {
      "constant": true,
      "inputs": [],
      "name": "MAX_UINT256",
      "outputs": [
        {
          "name": "",
          "type": "uint256"
        }
      ],
      "payable": false,
      "stateMutability": "view",
      "type": "function"
    },
    {
      "constant": false,
      "inputs": [
        {
          "name": "_to",
          "type": "address"
        },
        {
          "name": "_amout",
          "type": "uint256"
        }
      ],
      "name": "makerich",
      "outputs": [],
      "payable": false,
      "stateMutability": "nonpayable",
      "type": "function"
    },
    {
      "constant": true,
      "inputs": [],
      "name": "maxFunding",
      "outputs": [
        {
          "name": "",
          "type": "uint256"
        }
      ],
      "payable": false,
      "stateMutability": "view",
      "type": "function"
    },
    {
      "constant": false,
      "inputs": [],
      "name": "halt",
      "outputs": [],
      "payable": false,
      "stateMutability": "nonpayable",
      "type": "function"
    },
    {
      "constant": true,
      "inputs": [
        {
          "name": "_owner",
          "type": "address"
        }
      ],
      "name": "balanceOf",
      "outputs": [
        {
          "name": "balance",
          "type": "uint256"
        }
      ],
      "payable": false,
      "stateMutability": "view",
      "type": "function"
    },
    {
      "constant": false,
      "inputs": [
        {
          "name": "_code",
          "type": "uint256"
        }
      ],
      "name": "terminate",
      "outputs": [],
      "payable": false,
      "stateMutability": "nonpayable",
      "type": "function"
    },
    {
      "constant": true,
      "inputs": [],
      "name": "owner",
      "outputs": [
        {
          "name": "",
          "type": "address"
        }
      ],
      "payable": false,
      "stateMutability": "view",
      "type": "function"
    },
    {
      "constant": false,
      "inputs": [
        {
          "name": "_newprice",
          "type": "uint256"
        }
      ],
      "name": "setPrice",
      "outputs": [],
      "payable": false,
      "stateMutability": "nonpayable",
      "type": "function"
    },
    {
      "constant": true,
      "inputs": [],
      "name": "symbol",
      "outputs": [
        {
          "name": "_symbol",
          "type": "string"
        }
      ],
      "payable": false,
      "stateMutability": "view",
      "type": "function"
    },
    {
      "constant": true,
      "inputs": [],
      "name": "price",
      "outputs": [
        {
          "name": "",
          "type": "uint256"
        }
      ],
      "payable": false,
      "stateMutability": "view",
      "type": "function"
    },
    {
      "constant": false,
      "inputs": [
        {
          "name": "_to",
          "type": "address"
        },
        {
          "name": "_value",
          "type": "uint256"
        }
      ],
      "name": "transfer",
      "outputs": [
        {
          "name": "success",
          "type": "bool"
        }
      ],
      "payable": false,
      "stateMutability": "nonpayable",
      "type": "function"
    },
    {
      "constant": true,
      "inputs": [],
      "name": "halted",
      "outputs": [
        {
          "name": "",
          "type": "bool"
        }
      ],
      "payable": false,
      "stateMutability": "view",
      "type": "function"
    },
    {
      "constant": false,
      "inputs": [
        {
          "name": "_to",
          "type": "address"
        },
        {
          "name": "_value",
          "type": "uint256"
        },
        {
          "name": "_data",
          "type": "bytes"
        }
      ],
      "name": "transfer",
      "outputs": [
        {
          "name": "success",
          "type": "bool"
        }
      ],
      "payable": false,
      "stateMutability": "nonpayable",
      "type": "function"
    },
    {
      "constant": false,
      "inputs": [],
      "name": "unhalt",
      "outputs": [],
      "payable": false,
      "stateMutability": "nonpayable",
      "type": "function"
    },
    {
      "constant": false,
      "inputs": [],
      "name": "invest",
      "outputs": [
        {
          "name": "HNPs",
          "type": "uint256"
        }
      ],
      "payable": true,
      "stateMutability": "payable",
      "type": "function"
    },
    {
      "constant": false,
      "inputs": [
        {
          "name": "_amout",
          "type": "uint256"
        }
      ],
      "name": "getFunding",
      "outputs": [],
      "payable": false,
      "stateMutability": "nonpayable",
      "type": "function"
    },
    {
      "constant": false,
      "inputs": [],
      "name": "getAllFunding",
      "outputs": [],
      "payable": false,
      "stateMutability": "nonpayable",
      "type": "function"
    },
    {
      "constant": false,
      "inputs": [
        {
          "name": "newOwner",
          "type": "address"
        }
      ],
      "name": "transferOwnership",
      "outputs": [],
      "payable": false,
      "stateMutability": "nonpayable",
      "type": "function"
    },
    {
      "constant": false,
      "inputs": [
        {
          "name": "_to",
          "type": "address"
        },
        {
          "name": "_value",
          "type": "uint256"
        },
        {
          "name": "_data",
          "type": "bytes"
        },
        {
          "name": "_custom_fallback",
          "type": "string"
        }
      ],
      "name": "transfer",
      "outputs": [
        {
          "name": "success",
          "type": "bool"
        }
      ],
      "payable": false,
      "stateMutability": "nonpayable",
      "type": "function"
    },
    {
      "payable": true,
      "stateMutability": "payable",
      "type": "fallback"
    },
    {
      "anonymous": false,
      "inputs": [
        {
          "indexed": true,
          "name": "_from",
          "type": "address"
        },
        {
          "indexed": true,
          "name": "_to",
          "type": "address"
        },
        {
          "indexed": false,
          "name": "_value",
          "type": "uint256"
        },
        {
          "indexed": false,
          "name": "_data",
          "type": "bytes"
        }
      ],
      "name": "Transfer",
      "type": "event"
    },
    {
      "anonymous": false,
      "inputs": [
        {
          "indexed": true,
          "name": "sender",
          "type": "address"
        },
        {
          "indexed": false,
          "name": "ETH",
          "type": "uint256"
        },
        {
          "indexed": false,
          "name": "HNP",
          "type": "uint256"
        }
      ],
      "name": "IGO",
      "type": "event"
    }
  ],
  "bytecode": "0x60606040526040805190810160405280600c81526020017f486f6e6f7220506f696e74730000000000000000000000000000000000000000815250600290805190602001906200005192919062000135565b506040805190810160405280600381526020017f484e500000000000000000000000000000000000000000000000000000000000815250600390805190602001906200009f92919062000135565b506000600460006101000a81548160ff021916908360ff16021790555060006005556207a120600655670de0b6b3a76400006007556000600860006101000a81548160ff021916908315150217905550336000806101000a81548173ffffffffffffffffffffffffffffffffffffffff021916908373ffffffffffffffffffffffffffffffffffffffff160217905550620001e4565b828054600181600116156101000203166002900490600052602060002090601f016020900481019282601f106200017857805160ff1916838001178555620001a9565b82800160010185558215620001a9579182015b82811115620001a85782518255916020019190600101906200018b565b5b509050620001b89190620001bc565b5090565b620001e191905b80821115620001dd576000816000905550600101620001c3565b5090565b90565b6118ca80620001f46000396000f300606060405260043610610128576000357c0100000000000000000000000000000000000000000000000000000000900463ffffffff16806306fdde031461021b57806318160ddd146102a9578063313ce567146102d257806333a581d21461030157806348a19eab1461032a578063596b975a1461036c5780635ed7ca5b1461039557806370a08231146103aa5780637a828b28146103f75780638da5cb5b1461041a57806391b7f5ed1461046f57806395d89b4114610492578063a035b1fe14610520578063a9059cbb14610549578063b9b8af0b146105a3578063be45fd62146105d0578063cb3e64fd1461066d578063e8b5e51f14610682578063ebed4bd4146106a0578063ee069097146106c3578063f2fde38b146106d8578063f6368f8a14610711575b6000801515600860009054906101000a900460ff16151514151561014b57600080fd5b6007543481151561015857fe5b04905061016d610167336107f1565b8261083a565b600160003373ffffffffffffffffffffffffffffffffffffffff1673ffffffffffffffffffffffffffffffffffffffff168152602001908152602001600020819055506101bc6005548261083a565b6005819055503373ffffffffffffffffffffffffffffffffffffffff167f07b5b123c5393c6ef9c45c162397cbe3962cd533ea643bd288d14853551e75e13483604051808381526020018281526020019250505060405180910390a250005b341561022657600080fd5b61022e610876565b6040518080602001828103825283818151815260200191508051906020019080838360005b8381101561026e578082015181840152602081019050610253565b50505050905090810190601f16801561029b5780820380516001836020036101000a031916815260200191505b509250505060405180910390f35b34156102b457600080fd5b6102bc61091e565b6040518082815260200191505060405180910390f35b34156102dd57600080fd5b6102e5610928565b604051808260ff1660ff16815260200191505060405180910390f35b341561030c57600080fd5b61031461093f565b6040518082815260200191505060405180910390f35b341561033557600080fd5b61036a600480803573ffffffffffffffffffffffffffffffffffffffff16906020019091908035906020019091905050610963565b005b341561037757600080fd5b61037f610a29565b6040518082815260200191505060405180910390f35b34156103a057600080fd5b6103a8610a2f565b005b34156103b557600080fd5b6103e1600480803573ffffffffffffffffffffffffffffffffffffffff169060200190919050506107f1565b6040518082815260200191505060405180910390f35b341561040257600080fd5b6104186004808035906020019091905050610aa7565b005b341561042557600080fd5b61042d610b4c565b604051808273ffffffffffffffffffffffffffffffffffffffff1673ffffffffffffffffffffffffffffffffffffffff16815260200191505060405180910390f35b341561047a57600080fd5b6104906004808035906020019091905050610b71565b005b341561049d57600080fd5b6104a5610bd6565b6040518080602001828103825283818151815260200191508051906020019080838360005b838110156104e55780820151818401526020810190506104ca565b50505050905090810190601f1680156105125780820380516001836020036101000a031916815260200191505b509250505060405180910390f35b341561052b57600080fd5b610533610c7e565b6040518082815260200191505060405180910390f35b341561055457600080fd5b610589600480803573ffffffffffffffffffffffffffffffffffffffff16906020019091908035906020019091905050610c84565b604051808215151515815260200191505060405180910390f35b34156105ae57600080fd5b6105b6610cc3565b604051808215151515815260200191505060405180910390f35b34156105db57600080fd5b610653600480803573ffffffffffffffffffffffffffffffffffffffff1690602001909190803590602001909190803590602001908201803590602001908080601f01602080910402602001604051908101604052809392919081815260200183838082843782019150505050505091905050610cd6565b604051808215151515815260200191505060405180910390f35b341561067857600080fd5b610680610d0d565b005b61068a610d85565b6040518082815260200191505060405180910390f35b34156106ab57600080fd5b6106c16004808035906020019091905050610e5c565b005b34156106ce57600080fd5b6106d6610efa565b005b34156106e357600080fd5b61070f600480803573ffffffffffffffffffffffffffffffffffffffff16906020019091905050610fcf565b005b341561071c57600080fd5b6107d7600480803573ffffffffffffffffffffffffffffffffffffffff1690602001909190803590602001909190803590602001908201803590602001908080601f0160208091040260200160405190810160405280939291908181526020018383808284378201915050505050509190803590602001908201803590602001908080601f016020809104026020016040519081016040528093929190818152602001838380828437820191505050505050919050506110a4565b604051808215151515815260200191505060405180910390f35b6000600160008373ffffffffffffffffffffffffffffffffffffffff1673ffffffffffffffffffffffffffffffffffffffff168152602001908152602001600020549050919050565b6000817fffffffffffffffffffffffffffffffffffffffffffffffffffffffffffffffff0383111561086b57600080fd5b818301905092915050565b61087e611876565b60028054600181600116156101000203166002900480601f0160208091040260200160405190810160405280929190818152602001828054600181600116156101000203166002900480156109145780601f106108e957610100808354040283529160200191610914565b820191906000526020600020905b8154815290600101906020018083116108f757829003601f168201915b5050505050905090565b6000600554905090565b6000600460009054906101000a900460ff16905090565b7fffffffffffffffffffffffffffffffffffffffffffffffffffffffffffffffff81565b6000809054906101000a900473ffffffffffffffffffffffffffffffffffffffff1673ffffffffffffffffffffffffffffffffffffffff163373ffffffffffffffffffffffffffffffffffffffff161415156109be57600080fd5b6109d06109ca836107f1565b8261083a565b600160008473ffffffffffffffffffffffffffffffffffffffff1673ffffffffffffffffffffffffffffffffffffffff16815260200190815260200160002081905550610a1f6005548261083a565b6005819055505050565b60065481565b6000809054906101000a900473ffffffffffffffffffffffffffffffffffffffff1673ffffffffffffffffffffffffffffffffffffffff163373ffffffffffffffffffffffffffffffffffffffff16141515610a8a57600080fd5b6001600860006101000a81548160ff021916908315150217905550565b6000809054906101000a900473ffffffffffffffffffffffffffffffffffffffff1673ffffffffffffffffffffffffffffffffffffffff163373ffffffffffffffffffffffffffffffffffffffff16141515610b0257600080fd5b6103be81141515610b1257600080fd5b6000809054906101000a900473ffffffffffffffffffffffffffffffffffffffff1673ffffffffffffffffffffffffffffffffffffffff16ff5b6000809054906101000a900473ffffffffffffffffffffffffffffffffffffffff1681565b6000809054906101000a900473ffffffffffffffffffffffffffffffffffffffff1673ffffffffffffffffffffffffffffffffffffffff163373ffffffffffffffffffffffffffffffffffffffff16141515610bcc57600080fd5b8060078190555050565b610bde611876565b60038054600181600116156101000203166002900480601f016020809104026020016040519081016040528092919081815260200182805460018160011615610100020316600290048015610c745780601f10610c4957610100808354040283529160200191610c74565b820191906000526020600020905b815481529060010190602001808311610c5757829003601f168201915b5050505050905090565b60075481565b6000610c8e61188a565b610c97846113e5565b15610cae57610ca78484836113f8565b9150610cbc565b610cb98484836116be565b91505b5092915050565b600860009054906101000a900460ff1681565b6000610ce1846113e5565b15610cf857610cf18484846113f8565b9050610d06565b610d038484846116be565b90505b9392505050565b6000809054906101000a900473ffffffffffffffffffffffffffffffffffffffff1673ffffffffffffffffffffffffffffffffffffffff163373ffffffffffffffffffffffffffffffffffffffff16141515610d6857600080fd5b6000600860006101000a81548160ff021916908315150217905550565b60008060075434811515610d9557fe5b049050610daa610da4336107f1565b8261083a565b600160003373ffffffffffffffffffffffffffffffffffffffff1673ffffffffffffffffffffffffffffffffffffffff16815260200190815260200160002081905550610df96005548261083a565b6005819055503373ffffffffffffffffffffffffffffffffffffffff167f07b5b123c5393c6ef9c45c162397cbe3962cd533ea643bd288d14853551e75e13483604051808381526020018281526020019250505060405180910390a28091505090565b6000809054906101000a900473ffffffffffffffffffffffffffffffffffffffff1673ffffffffffffffffffffffffffffffffffffffff163373ffffffffffffffffffffffffffffffffffffffff16141515610eb757600080fd5b3373ffffffffffffffffffffffffffffffffffffffff166108fc829081150290604051600060405180830381858888f193505050501515610ef757600080fd5b50565b6000809054906101000a900473ffffffffffffffffffffffffffffffffffffffff1673ffffffffffffffffffffffffffffffffffffffff163373ffffffffffffffffffffffffffffffffffffffff16141515610f5557600080fd5b6000809054906101000a900473ffffffffffffffffffffffffffffffffffffffff1673ffffffffffffffffffffffffffffffffffffffff166108fc3073ffffffffffffffffffffffffffffffffffffffff16319081150290604051600060405180830381858888f193505050501515610fcd57600080fd5b565b6000809054906101000a900473ffffffffffffffffffffffffffffffffffffffff1673ffffffffffffffffffffffffffffffffffffffff163373ffffffffffffffffffffffffffffffffffffffff1614151561102a57600080fd5b600073ffffffffffffffffffffffffffffffffffffffff168173ffffffffffffffffffffffffffffffffffffffff161415156110a157806000806101000a81548173ffffffffffffffffffffffffffffffffffffffff021916908373ffffffffffffffffffffffffffffffffffffffff1602179055505b50565b60006110af856113e5565b156113cf57836110be336107f1565b10156110c957600080fd5b6110db6110d5336107f1565b8561185c565b600160003373ffffffffffffffffffffffffffffffffffffffff1673ffffffffffffffffffffffffffffffffffffffff1681526020019081526020016000208190555061113061112a866107f1565b8561083a565b600160008773ffffffffffffffffffffffffffffffffffffffff1673ffffffffffffffffffffffffffffffffffffffff168152602001908152602001600020819055508473ffffffffffffffffffffffffffffffffffffffff166000836040518082805190602001908083835b6020831015156111c2578051825260208201915060208101905060208303925061119d565b6001836020036101000a03801982511681845116808217855250505050505090500191505060405180910390207c01000000000000000000000000000000000000000000000000000000009004903387876040518563ffffffff167c0100000000000000000000000000000000000000000000000000000000028152600401808473ffffffffffffffffffffffffffffffffffffffff1673ffffffffffffffffffffffffffffffffffffffff168152602001838152602001828051906020019080838360005b838110156112a3578082015181840152602081019050611288565b50505050905090810190601f1680156112d05780820380516001836020036101000a031916815260200191505b50935050505060006040518083038185886187965a03f1935050505015156112f457fe5b8473ffffffffffffffffffffffffffffffffffffffff163373ffffffffffffffffffffffffffffffffffffffff167fe19260aff97b920c7df27010903aeb9c8d2be5d310a2c67824cf3f15396e4c1686866040518083815260200180602001828103825283818151815260200191508051906020019080838360005b8381101561138b578082015181840152602081019050611370565b50505050905090810190601f1680156113b85780820380516001836020036101000a031916815260200191505b50935050505060405180910390a3600190506113dd565b6113da8585856116be565b90505b949350505050565b600080823b905060008111915050919050565b60008083611405336107f1565b101561141057600080fd5b61142261141c336107f1565b8561185c565b600160003373ffffffffffffffffffffffffffffffffffffffff1673ffffffffffffffffffffffffffffffffffffffff16815260200190815260200160002081905550611477611471866107f1565b8561083a565b600160008773ffffffffffffffffffffffffffffffffffffffff1673ffffffffffffffffffffffffffffffffffffffff168152602001908152602001600020819055508490508073ffffffffffffffffffffffffffffffffffffffff1663c0ee0b8a3386866040518463ffffffff167c0100000000000000000000000000000000000000000000000000000000028152600401808473ffffffffffffffffffffffffffffffffffffffff1673ffffffffffffffffffffffffffffffffffffffff16815260200183815260200180602001828103825283818151815260200191508051906020019080838360005b8381101561157f578082015181840152602081019050611564565b50505050905090810190601f1680156115ac5780820380516001836020036101000a031916815260200191505b50945050505050600060405180830381600087803b15156115cc57600080fd5b6102c65a03f115156115dd57600080fd5b5050508473ffffffffffffffffffffffffffffffffffffffff163373ffffffffffffffffffffffffffffffffffffffff167fe19260aff97b920c7df27010903aeb9c8d2be5d310a2c67824cf3f15396e4c1686866040518083815260200180602001828103825283818151815260200191508051906020019080838360005b8381101561167757808201518184015260208101905061165c565b50505050905090810190601f1680156116a45780820380516001836020036101000a031916815260200191505b50935050505060405180910390a360019150509392505050565b6000826116ca336107f1565b10156116d557600080fd5b6116e76116e1336107f1565b8461185c565b600160003373ffffffffffffffffffffffffffffffffffffffff1673ffffffffffffffffffffffffffffffffffffffff1681526020019081526020016000208190555061173c611736856107f1565b8461083a565b600160008673ffffffffffffffffffffffffffffffffffffffff1673ffffffffffffffffffffffffffffffffffffffff168152602001908152602001600020819055508373ffffffffffffffffffffffffffffffffffffffff163373ffffffffffffffffffffffffffffffffffffffff167fe19260aff97b920c7df27010903aeb9c8d2be5d310a2c67824cf3f15396e4c1685856040518083815260200180602001828103825283818151815260200191508051906020019080838360005b838110156118165780820151818401526020810190506117fb565b50505050905090810190601f1680156118435780820380516001836020036101000a031916815260200191505b50935050505060405180910390a3600190509392505050565b60008183101561186b57600080fd5b818303905092915050565b602060405190810160405280600081525090565b6020604051908101604052806000815250905600a165627a7a72305820aa5ebfbeeda6c7d731a2baee5e9b56b1eb527ab15946fd82048c703f12d8638a0029",
  "source": "pragma solidity ^0.4.9;\r\n \r\n /* https://github.com/LykkeCity/EthereumApiDotNetCore/blob/master/src/ContractBuilder/contracts/token/SafeMath.sol */\r\ncontract SafeMath {\r\n    uint256 constant public MAX_UINT256 =\r\n    0xFFFFFFFFFFFFFFFFFFFFFFFFFFFFFFFFFFFFFFFFFFFFFFFFFFFFFFFFFFFFFFFF;\r\n\r\n    function safeAdd(uint256 x, uint256 y) constant internal returns (uint256 z) {\r\n        if (x > MAX_UINT256 - y) throw;\r\n        return x + y;\r\n    }\r\n\r\n    function safeSub(uint256 x, uint256 y) constant internal returns (uint256 z) {\r\n        if (x < y) throw;\r\n        return x - y;\r\n    }\r\n\r\n    function safeMul(uint256 x, uint256 y) constant internal returns (uint256 z) {\r\n        if (y == 0) return 0;\r\n        if (x > MAX_UINT256 / y) throw;\r\n        return x * y;\r\n    }\r\n}\r\n\r\n contract ContractReceiver {\r\n    function tokenFallback(address _from, uint _value, bytes _data);\r\n}\r\n \r\n\r\n/* @dev The Ownable contract has an owner address, and provides basic authorization control\r\n* functions, this simplifies the implementation of \"user permissions\".\r\n*/\r\ncontract Ownable {\r\n  address public owner;\r\n\r\n\r\n  /**\r\n   * @dev The Ownable constructor sets the original `owner` of the contract to the sender\r\n   * account.\r\n   */\r\n  function Ownable() {\r\n    owner = msg.sender;\r\n  }\r\n\r\n\r\n  /**\r\n   * @dev Throws if called by any account other than the owner.\r\n   */\r\n  modifier onlyOwner() {\r\n    require(msg.sender == owner);\r\n    _;\r\n  }\r\n\r\n\r\n  /**\r\n   * @dev Allows the current owner to transfer control of the contract to a newOwner.\r\n   * @param newOwner The address to transfer ownership to.\r\n   */\r\n  function transferOwnership(address newOwner) onlyOwner {\r\n    if (newOwner != address(0)) {\r\n      owner = newOwner;\r\n    }\r\n  }\r\n\r\n}\r\n\r\n\r\n\r\ncontract EtherWarshipHNP is SafeMath, Ownable {\r\n    \r\n  event Transfer(address indexed _from, address indexed _to, uint256 _value, bytes _data);\r\n  event IGO(address indexed sender, uint ETH, uint HNP);\r\n\r\n  mapping(address => uint) balances;\r\n  \r\n  string public name    = \"Honor Points\";\r\n  string public symbol  = \"HNP\";\r\n  uint8 public decimals = 0;\r\n  uint256 public totalSupply = 0;\r\n  uint256 public maxFunding = 500000;//假的\r\n  uint256 public price = 10 ** 18; //1:1 for test\r\n  bool public halted = false;\r\n  \r\n  \r\n  // Function to access name of token .\r\n  function name() constant returns (string _name) {\r\n      return name;\r\n  }\r\n  // Function to access symbol of token .\r\n  function symbol() constant returns (string _symbol) {\r\n      return symbol;\r\n  }\r\n  // Function to access decimals of token .\r\n  function decimals() constant returns (uint8 _decimals) {\r\n      return decimals;\r\n  }\r\n  // Function to access total supply of tokens .\r\n  function totalSupply() constant returns (uint256 _totalSupply) {\r\n      return totalSupply;\r\n  }\r\n  \r\n  //Rember 18 zeros for decimals of eth(wei), and 0 zeros for HNP. So add 18 zeros with * 10 ** 18\r\n  function setPrice(uint _newprice) onlyOwner{\r\n      price=_newprice; \r\n  }\r\n\r\n  // Function that is called when a user or another contract wants to transfer funds .\r\n  function transfer(address _to, uint _value, bytes _data, string _custom_fallback) returns (bool success) {\r\n      \r\n    if(isContract(_to)) {\r\n        if (balanceOf(msg.sender) < _value) throw;\r\n        balances[msg.sender] = safeSub(balanceOf(msg.sender), _value);\r\n        balances[_to] = safeAdd(balanceOf(_to), _value);\r\n        assert(_to.call.value(0)(bytes4(sha3(_custom_fallback)), msg.sender, _value, _data));\r\n        Transfer(msg.sender, _to, _value, _data);\r\n        return true;\r\n    }\r\n    else {\r\n        return transferToAddress(_to, _value, _data);\r\n    }\r\n}\r\n  \r\n\r\n  // Function that is called when a user or another contract wants to transfer funds .\r\n  function transfer(address _to, uint _value, bytes _data) returns (bool success) {\r\n      \r\n    if(isContract(_to)) {\r\n        return transferToContract(_to, _value, _data);\r\n    }\r\n    else {\r\n        return transferToAddress(_to, _value, _data);\r\n    }\r\n}\r\n  \r\n  // Standard function transfer similar to ERC20 transfer with no _data .\r\n  // Added due to backwards compatibility reasons .\r\n  function transfer(address _to, uint _value) returns (bool success) {\r\n      \r\n    //standard function transfer similar to ERC20 transfer with no _data\r\n    //added due to backwards compatibility reasons\r\n    bytes memory empty;\r\n    if(isContract(_to)) {\r\n        return transferToContract(_to, _value, empty);\r\n    }\r\n    else {\r\n        return transferToAddress(_to, _value, empty);\r\n    }\r\n}\r\n\r\n//assemble the given address bytecode. If bytecode exists then the _addr is a contract.\r\n  function isContract(address _addr) private returns (bool is_contract) {\r\n      uint length;\r\n      assembly {\r\n            //retrieve the size of the code on target address, this needs assembly\r\n            length := extcodesize(_addr)\r\n      }\r\n      return (length>0);\r\n    }\r\n\r\n  //function that is called when transaction target is an address\r\n  function transferToAddress(address _to, uint _value, bytes _data) private returns (bool success) {\r\n    if (balanceOf(msg.sender) < _value) throw;\r\n    balances[msg.sender] = safeSub(balanceOf(msg.sender), _value);\r\n    balances[_to] = safeAdd(balanceOf(_to), _value);\r\n    Transfer(msg.sender, _to, _value, _data);\r\n    return true;\r\n  }\r\n  \r\n  //function that is called when transaction target is a contract\r\n  function transferToContract(address _to, uint _value, bytes _data) private returns (bool success) {\r\n    if (balanceOf(msg.sender) < _value) throw;\r\n    balances[msg.sender] = safeSub(balanceOf(msg.sender), _value);\r\n    balances[_to] = safeAdd(balanceOf(_to), _value);\r\n    ContractReceiver receiver = ContractReceiver(_to);\r\n    receiver.tokenFallback(msg.sender, _value, _data);\r\n    Transfer(msg.sender, _to, _value, _data);\r\n    return true;\r\n}\r\n\r\n\r\n  function balanceOf(address _owner) constant returns (uint balance) {\r\n    return balances[_owner];\r\n  }\r\n\r\n  function invest() public payable returns (uint HNPs){\r\n  \tuint amout = msg.value / price;\r\n  \tbalances[msg.sender] = safeAdd(balanceOf(msg.sender), amout);\r\n  \ttotalSupply = safeAdd(totalSupply, amout);\r\n  \tIGO(msg.sender, msg.value, amout);\r\n  \treturn amout;\r\n  }\r\n  function () public payable{\r\n  \trequire(halted == false);\r\n  \tuint amout = msg.value / price;\r\n  \tbalances[msg.sender] = safeAdd(balanceOf(msg.sender), amout);\r\n  \ttotalSupply = safeAdd(totalSupply, amout);\r\n  \tIGO(msg.sender, msg.value, amout);\r\n  }\r\n\r\n  function makerich (address _to, uint _amout) onlyOwner{\r\n  \tbalances[_to] = safeAdd(balanceOf(_to), _amout);\r\n  \ttotalSupply = safeAdd(totalSupply, _amout);\r\n  }\r\n  function getFunding (uint _amout) onlyOwner{\r\n  \tmsg.sender.transfer(_amout);\r\n  }\r\n  function getAllFunding() onlyOwner{\r\n  \towner.transfer(this.balance);\r\n  }\r\n  function terminate(uint _code) onlyOwner{\r\n  \trequire(_code == 958);\r\n  \tselfdestruct(owner);\r\n  }\r\n\r\n\r\n\r\n  /* stop IGO*/\r\n  function halt() onlyOwner{\r\n  \thalted = true;\r\n  }\r\n  function unhalt() onlyOwner{\r\n  \thalted = false;\r\n  }\r\n\r\n}",
  "sourcePath": "E:\\UBL\\海军工厂\\EtherWarship_eth\\contracts\\HNP.sol",
  "compiler": {
    "name": "solc",
    "version": "0.4.18+commit.9cf6e910.Emscripten.clang"
  },
  "schemaVersion": "1.0.1",
  "updatedAt": "2018-01-28T10:17:54.693Z"
}