{
  "contractName": "HNP2Ship",
  "abi": [
    {
      "constant": true,
      "inputs": [],
      "name": "priceforCA",
      "outputs": [
        {
          "name": "",
          "type": "uint256"
        }
      ],
      "payable": false,
      "stateMutability": "view",
      "type": "function"
    },
    {
      "constant": true,
      "inputs": [],
      "name": "HNPcontract",
      "outputs": [
        {
          "name": "",
          "type": "address"
        }
      ],
      "payable": false,
      "stateMutability": "view",
      "type": "function"
    },
    {
      "constant": true,
      "inputs": [
        {
          "name": "_owner",
          "type": "address"
        }
      ],
      "name": "getship",
      "outputs": [
        {
          "name": "",
          "type": "uint256[]"
        }
      ],
      "payable": false,
      "stateMutability": "view",
      "type": "function"
    },
    {
      "constant": false,
      "inputs": [
        {
          "name": "_cl",
          "type": "uint256"
        },
        {
          "name": "_ca",
          "type": "uint256"
        },
        {
          "name": "_bb",
          "type": "uint256"
        },
        {
          "name": "_ghost",
          "type": "uint256"
        }
      ],
      "name": "setprice",
      "outputs": [],
      "payable": false,
      "stateMutability": "nonpayable",
      "type": "function"
    },
    {
      "constant": true,
      "inputs": [],
      "name": "decimals",
      "outputs": [
        {
          "name": "_decimals",
          "type": "uint8"
        }
      ],
      "payable": false,
      "stateMutability": "view",
      "type": "function"
    },
    {
      "constant": true,
      "inputs": [],
      "name": "MAX_UINT256",
      "outputs": [
        {
          "name": "",
          "type": "uint256"
        }
      ],
      "payable": false,
      "stateMutability": "view",
      "type": "function"
    },
    {
      "constant": true,
      "inputs": [],
      "name": "getship",
      "outputs": [
        {
          "name": "",
          "type": "uint256[]"
        }
      ],
      "payable": false,
      "stateMutability": "view",
      "type": "function"
    },
    {
      "constant": false,
      "inputs": [
        {
          "name": "_newaddress",
          "type": "address"
        }
      ],
      "name": "setHNPcontract",
      "outputs": [],
      "payable": false,
      "stateMutability": "nonpayable",
      "type": "function"
    },
    {
      "constant": true,
      "inputs": [
        {
          "name": "",
          "type": "address"
        }
      ],
      "name": "ownerShipCount",
      "outputs": [
        {
          "name": "",
          "type": "uint256"
        }
      ],
      "payable": false,
      "stateMutability": "view",
      "type": "function"
    },
    {
      "constant": true,
      "inputs": [],
      "name": "priceforCL",
      "outputs": [
        {
          "name": "",
          "type": "uint256"
        }
      ],
      "payable": false,
      "stateMutability": "view",
      "type": "function"
    },
    {
      "constant": true,
      "inputs": [
        {
          "name": "",
          "type": "uint256"
        }
      ],
      "name": "ships",
      "outputs": [
        {
          "name": "",
          "type": "string"
        }
      ],
      "payable": false,
      "stateMutability": "view",
      "type": "function"
    },
    {
      "constant": true,
      "inputs": [
        {
          "name": "",
          "type": "uint256"
        }
      ],
      "name": "ship2owner",
      "outputs": [
        {
          "name": "",
          "type": "address"
        }
      ],
      "payable": false,
      "stateMutability": "view",
      "type": "function"
    },
    {
      "constant": true,
      "inputs": [],
      "name": "priceforBB",
      "outputs": [
        {
          "name": "",
          "type": "uint256"
        }
      ],
      "payable": false,
      "stateMutability": "view",
      "type": "function"
    },
    {
      "constant": true,
      "inputs": [],
      "name": "owner",
      "outputs": [
        {
          "name": "",
          "type": "address"
        }
      ],
      "payable": false,
      "stateMutability": "view",
      "type": "function"
    },
    {
      "constant": true,
      "inputs": [
        {
          "name": "_id",
          "type": "uint256"
        }
      ],
      "name": "getcdkey",
      "outputs": [
        {
          "name": "",
          "type": "string"
        }
      ],
      "payable": false,
      "stateMutability": "view",
      "type": "function"
    },
    {
      "constant": false,
      "inputs": [
        {
          "name": "_from",
          "type": "address"
        },
        {
          "name": "_value",
          "type": "uint256"
        },
        {
          "name": "_data",
          "type": "bytes"
        }
      ],
      "name": "tokenFallback",
      "outputs": [],
      "payable": false,
      "stateMutability": "nonpayable",
      "type": "function"
    },
    {
      "constant": true,
      "inputs": [],
      "name": "priceforGhost",
      "outputs": [
        {
          "name": "",
          "type": "uint256"
        }
      ],
      "payable": false,
      "stateMutability": "view",
      "type": "function"
    },
    {
      "constant": false,
      "inputs": [
        {
          "name": "newOwner",
          "type": "address"
        }
      ],
      "name": "transferOwnership",
      "outputs": [],
      "payable": false,
      "stateMutability": "nonpayable",
      "type": "function"
    }
  ],
  "bytecode": "0x60606040526000600460006101000a81548160ff021916908360ff16021790555060326006556101f4600755611388600855620186a0600955336000806101000a81548173ffffffffffffffffffffffffffffffffffffffff021916908373ffffffffffffffffffffffffffffffffffffffff16021790555061144e806100876000396000f3006060604052600436106100fc576000357c0100000000000000000000000000000000000000000000000000000000900463ffffffff16806305ebbc511461010157806314f329be1461012a57806323751c621461017f57806327ad22091461020d578063313ce5671461024b57806333a581d21461027a57806334398b0a146102a3578063362d79a41461030d5780633b754ace146103465780634900f9e9146103935780634d4e8dfa146103bc5780636def39261461045857806379d7c9d4146104bb5780638da5cb5b146104e45780639950951e14610539578063c0ee0b8a146105d5578063e964e55c1461065a578063f2fde38b14610683575b600080fd5b341561010c57600080fd5b6101146106bc565b6040518082815260200191505060405180910390f35b341561013557600080fd5b61013d6106c2565b604051808273ffffffffffffffffffffffffffffffffffffffff1673ffffffffffffffffffffffffffffffffffffffff16815260200191505060405180910390f35b341561018a57600080fd5b6101b6600480803573ffffffffffffffffffffffffffffffffffffffff169060200190919050506106e8565b6040518080602001828103825283818151815260200191508051906020019060200280838360005b838110156101f95780820151818401526020810190506101de565b505050509050019250505060405180910390f35b341561021857600080fd5b6102496004808035906020019091908035906020019091908035906020019091908035906020019091905050610816565b005b341561025657600080fd5b61025e610893565b604051808260ff1660ff16815260200191505060405180910390f35b341561028557600080fd5b61028d6108aa565b6040518082815260200191505060405180910390f35b34156102ae57600080fd5b6102b66108ce565b6040518080602001828103825283818151815260200191508051906020019060200280838360005b838110156102f95780820151818401526020810190506102de565b505050509050019250505060405180910390f35b341561031857600080fd5b610344600480803573ffffffffffffffffffffffffffffffffffffffff169060200190919050506109fa565b005b341561035157600080fd5b61037d600480803573ffffffffffffffffffffffffffffffffffffffff16906020019091905050610a99565b6040518082815260200191505060405180910390f35b341561039e57600080fd5b6103a6610ab1565b6040518082815260200191505060405180910390f35b34156103c757600080fd5b6103dd6004808035906020019091905050610ab7565b6040518080602001828103825283818151815260200191508051906020019080838360005b8381101561041d578082015181840152602081019050610402565b50505050905090810190601f16801561044a5780820380516001836020036101000a031916815260200191505b509250505060405180910390f35b341561046357600080fd5b6104796004808035906020019091905050610b73565b604051808273ffffffffffffffffffffffffffffffffffffffff1673ffffffffffffffffffffffffffffffffffffffff16815260200191505060405180910390f35b34156104c657600080fd5b6104ce610ba6565b6040518082815260200191505060405180910390f35b34156104ef57600080fd5b6104f7610bac565b604051808273ffffffffffffffffffffffffffffffffffffffff1673ffffffffffffffffffffffffffffffffffffffff16815260200191505060405180910390f35b341561054457600080fd5b61055a6004808035906020019091905050610bd1565b6040518080602001828103825283818151815260200191508051906020019080838360005b8381101561059a57808201518184015260208101905061057f565b50505050905090810190601f1680156105c75780820380516001836020036101000a031916815260200191505b509250505060405180910390f35b34156105e057600080fd5b610658600480803573ffffffffffffffffffffffffffffffffffffffff1690602001909190803590602001909190803590602001908201803590602001908080601f01602080910402602001604051908101604052809392919081815260200183838082843782019150505050505091905050610c93565b005b341561066557600080fd5b61066d6111da565b6040518082815260200191505060405180910390f35b341561068e57600080fd5b6106ba600480803573ffffffffffffffffffffffffffffffffffffffff169060200190919050506111e0565b005b60075481565b600160009054906101000a900473ffffffffffffffffffffffffffffffffffffffff1681565b6106f06112b5565b6106f86112b5565b600080600360008673ffffffffffffffffffffffffffffffffffffffff1673ffffffffffffffffffffffffffffffffffffffff168152602001908152602001600020546040518059106107485750595b9080825280602002602001820160405250925060009150600090505b60058054905081101561080b578473ffffffffffffffffffffffffffffffffffffffff166002600083815260200190815260200160002060009054906101000a900473ffffffffffffffffffffffffffffffffffffffff1673ffffffffffffffffffffffffffffffffffffffff1614156107fe578083838151811015156107e757fe5b906020019060200201818152505081806001019250505b8080600101915050610764565b829350505050919050565b6000809054906101000a900473ffffffffffffffffffffffffffffffffffffffff1673ffffffffffffffffffffffffffffffffffffffff163373ffffffffffffffffffffffffffffffffffffffff1614151561087157600080fd5b8360068190555082600781905550816008819055508060098190555050505050565b6000600460009054906101000a900460ff16905090565b7fffffffffffffffffffffffffffffffffffffffffffffffffffffffffffffffff81565b6108d66112b5565b6108de6112b5565b600080600360003373ffffffffffffffffffffffffffffffffffffffff1673ffffffffffffffffffffffffffffffffffffffff1681526020019081526020016000205460405180591061092e5750595b9080825280602002602001820160405250925060009150600090505b6005805490508110156109f1573373ffffffffffffffffffffffffffffffffffffffff166002600083815260200190815260200160002060009054906101000a900473ffffffffffffffffffffffffffffffffffffffff1673ffffffffffffffffffffffffffffffffffffffff1614156109e4578083838151811015156109cd57fe5b906020019060200201818152505081806001019250505b808060010191505061094a565b82935050505090565b6000809054906101000a900473ffffffffffffffffffffffffffffffffffffffff1673ffffffffffffffffffffffffffffffffffffffff163373ffffffffffffffffffffffffffffffffffffffff16141515610a5557600080fd5b80600160006101000a81548173ffffffffffffffffffffffffffffffffffffffff021916908373ffffffffffffffffffffffffffffffffffffffff16021790555050565b60036020528060005260406000206000915090505481565b60065481565b600581815481101515610ac657fe5b90600052602060002090016000915090508054600181600116156101000203166002900480601f016020809104026020016040519081016040528092919081815260200182805460018160011615610100020316600290048015610b6b5780601f10610b4057610100808354040283529160200191610b6b565b820191906000526020600020905b815481529060010190602001808311610b4e57829003601f168201915b505050505081565b60026020528060005260406000206000915054906101000a900473ffffffffffffffffffffffffffffffffffffffff1681565b60085481565b6000809054906101000a900473ffffffffffffffffffffffffffffffffffffffff1681565b610bd96112c9565b600582815481101515610be857fe5b90600052602060002090018054600181600116156101000203166002900480601f016020809104026020016040519081016040528092919081815260200182805460018160011615610100020316600290048015610c875780601f10610c5c57610100808354040283529160200191610c87565b820191906000526020600020905b815481529060010190602001808311610c6a57829003601f168201915b50505050509050919050565b610c9b6112c9565b6000600160009054906101000a900473ffffffffffffffffffffffffffffffffffffffff1673ffffffffffffffffffffffffffffffffffffffff163373ffffffffffffffffffffffffffffffffffffffff16141515610cf957600080fd5b60065484111515610d0957600080fd5b6006548410158015610d1c575060075484105b15610e3f576040805190810160405280600981526020017f6120434c207368697000000000000000000000000000000000000000000000008152509150600160058054806001018281610d6f91906112dd565b916000526020600020900160008590919091509080519060200190610d95929190611309565b50039050846002600083815260200190815260200160002060006101000a81548173ffffffffffffffffffffffffffffffffffffffff021916908373ffffffffffffffffffffffffffffffffffffffff160217905550600360008673ffffffffffffffffffffffffffffffffffffffff1673ffffffffffffffffffffffffffffffffffffffff168152602001908152602001600020600081548092919060010191905055506111d3565b6007548410158015610e52575060085484105b15610f75576040805190810160405280600981526020017f61204341207368697000000000000000000000000000000000000000000000008152509150600160058054806001018281610ea591906112dd565b916000526020600020900160008590919091509080519060200190610ecb929190611309565b50039050846002600083815260200190815260200160002060006101000a81548173ffffffffffffffffffffffffffffffffffffffff021916908373ffffffffffffffffffffffffffffffffffffffff160217905550600360008673ffffffffffffffffffffffffffffffffffffffff1673ffffffffffffffffffffffffffffffffffffffff168152602001908152602001600020600081548092919060010191905055506111d2565b6008548410158015610f88575060095484105b156110ab576040805190810160405280600981526020017f61204242207368697000000000000000000000000000000000000000000000008152509150600160058054806001018281610fdb91906112dd565b916000526020600020900160008590919091509080519060200190611001929190611309565b50039050846002600083815260200190815260200160002060006101000a81548173ffffffffffffffffffffffffffffffffffffffff021916908373ffffffffffffffffffffffffffffffffffffffff160217905550600360008673ffffffffffffffffffffffffffffffffffffffff1673ffffffffffffffffffffffffffffffffffffffff168152602001908152602001600020600081548092919060010191905055506111d1565b600954841015156111d0576040805190810160405280600c81526020017f612047686f737420736869700000000000000000000000000000000000000000815250915060016005805480600101828161110491906112dd565b91600052602060002090016000859091909150908051906020019061112a929190611309565b50039050846002600083815260200190815260200160002060006101000a81548173ffffffffffffffffffffffffffffffffffffffff021916908373ffffffffffffffffffffffffffffffffffffffff160217905550600360008673ffffffffffffffffffffffffffffffffffffffff1673ffffffffffffffffffffffffffffffffffffffff168152602001908152602001600020600081548092919060010191905055505b5b5b5b5050505050565b60095481565b6000809054906101000a900473ffffffffffffffffffffffffffffffffffffffff1673ffffffffffffffffffffffffffffffffffffffff163373ffffffffffffffffffffffffffffffffffffffff1614151561123b57600080fd5b600073ffffffffffffffffffffffffffffffffffffffff168173ffffffffffffffffffffffffffffffffffffffff161415156112b257806000806101000a81548173ffffffffffffffffffffffffffffffffffffffff021916908373ffffffffffffffffffffffffffffffffffffffff1602179055505b50565b602060405190810160405280600081525090565b602060405190810160405280600081525090565b815481835581811511611304578183600052602060002091820191016113039190611389565b5b505050565b828054600181600116156101000203166002900490600052602060002090601f016020900481019282601f1061134a57805160ff1916838001178555611378565b82800160010185558215611378579182015b8281111561137757825182559160200191906001019061135c565b5b50905061138591906113b5565b5090565b6113b291905b808211156113ae57600081816113a591906113da565b5060010161138f565b5090565b90565b6113d791905b808211156113d35760008160009055506001016113bb565b5090565b90565b50805460018160011615610100020316600290046000825580601f10611400575061141f565b601f01602090049060005260206000209081019061141e91906113b5565b5b505600a165627a7a7230582072c2cea4b2085e2e565f0ff84d0343cc49a984a05e6b50119f15932a4b1455290029",
  "source": "pragma solidity ^0.4.9;\r\n \r\n /* https://github.com/LykkeCity/EthereumApiDotNetCore/blob/master/src/ContractBuilder/contracts/token/SafeMath.sol */\r\ncontract SafeMath {\r\n    uint256 constant public MAX_UINT256 =\r\n    0xFFFFFFFFFFFFFFFFFFFFFFFFFFFFFFFFFFFFFFFFFFFFFFFFFFFFFFFFFFFFFFFF;\r\n\r\n    function safeAdd(uint256 x, uint256 y) constant internal returns (uint256 z) {\r\n        if (x > MAX_UINT256 - y) throw;\r\n        return x + y;\r\n    }\r\n\r\n    function safeSub(uint256 x, uint256 y) constant internal returns (uint256 z) {\r\n        if (x < y) throw;\r\n        return x - y;\r\n    }\r\n\r\n    function safeMul(uint256 x, uint256 y) constant internal returns (uint256 z) {\r\n        if (y == 0) return 0;\r\n        if (x > MAX_UINT256 / y) throw;\r\n        return x * y;\r\n    }\r\n}\r\n\r\n\r\n/* @dev The Ownable contract has an owner address, and provides basic authorization control\r\n* functions, this simplifies the implementation of \"user permissions\".\r\n*/\r\ncontract Ownable {\r\n  address public owner;\r\n\r\n\r\n  /**\r\n   * @dev The Ownable constructor sets the original `owner` of the contract to the sender\r\n   * account.\r\n   */\r\n  function Ownable() {\r\n    owner = msg.sender;\r\n  }\r\n\r\n\r\n  /**\r\n   * @dev Throws if called by any account other than the owner.\r\n   */\r\n  modifier onlyOwner() {\r\n    require(msg.sender == owner);\r\n    _;\r\n  }\r\n\r\n\r\n  /**\r\n   * @dev Allows the current owner to transfer control of the contract to a newOwner.\r\n   * @param newOwner The address to transfer ownership to.\r\n   */\r\n  function transferOwnership(address newOwner) onlyOwner {\r\n    if (newOwner != address(0)) {\r\n      owner = newOwner;\r\n    }\r\n  }\r\n\r\n}\r\n\r\n contract ContractReceiver is Ownable, SafeMath{\r\n    function tokenFallback(address _from, uint _value, bytes _data);\r\n}\r\n\r\ncontract HNP2Ship is ContractReceiver{\r\n    address public HNPcontract;\r\n    mapping (uint => address) public ship2owner;\r\n    mapping (address => uint) public ownerShipCount;\r\n    uint8 public decimals = 0;\r\n    string[] public ships;\r\n    uint public priceforCL = 50;\r\n    uint public priceforCA = 500;\r\n    uint public priceforBB = 5000;\r\n    uint public priceforGhost =100000;\r\n    // Function to access decimals of token .\r\n      function decimals() constant returns (uint8 _decimals) {\r\n          return decimals;\r\n      }\r\n    function setprice(uint _cl,uint _ca, uint _bb, uint _ghost) onlyOwner{\r\n        priceforCL = _cl;\r\n        priceforCA = _ca;\r\n        priceforBB = _bb;\r\n        priceforGhost = _ghost;\r\n    }\r\n\r\n\r\n    function setHNPcontract(address _newaddress) onlyOwner{\r\n        HNPcontract = _newaddress;\r\n    }\r\n\r\n    function tokenFallback(address _from, uint _value, bytes _data){\r\n        require(msg.sender == HNPcontract);\r\n        require(_value > priceforCL);\r\n        string memory cdkey;\r\n        uint id;\r\n        if (_value >=priceforCL && _value <priceforCA) {\r\n            cdkey = \"a CL ship\";\r\n            id = ships.push(cdkey) - 1;\r\n            ship2owner[id] = _from;\r\n            ownerShipCount[_from]++;\r\n        }\r\n        else if (_value >=priceforCA && _value <priceforBB) {\r\n            cdkey = \"a CA ship\";\r\n            id = ships.push(cdkey) - 1;\r\n            ship2owner[id] = _from;\r\n            ownerShipCount[_from]++;\r\n        }\r\n        else if (_value >=priceforBB && _value <priceforGhost) {\r\n            cdkey = \"a BB ship\";\r\n            id = ships.push(cdkey) - 1;\r\n            ship2owner[id] = _from;\r\n            ownerShipCount[_from]++;\r\n        }\r\n        else if (_value >=priceforGhost) {\r\n            cdkey = \"a Ghost ship\";\r\n            id = ships.push(cdkey) - 1;\r\n            ship2owner[id] = _from;\r\n            ownerShipCount[_from]++;\r\n        }\r\n    }\r\n\r\n    function getship(address _owner) public view returns(uint[]){\r\n        uint[] memory result = new uint[](ownerShipCount[_owner]);\r\n        uint counter = 0;\r\n        for (uint i = 0; i < ships.length; i++) {\r\n          if (ship2owner[i] == _owner) {\r\n            result[counter] = i;\r\n            counter++;\r\n          }\r\n        }\r\n        return result;\r\n    }   \r\n    function getship() public view returns(uint[]){\r\n        uint[] memory result = new uint[](ownerShipCount[msg.sender]);\r\n        uint counter = 0;\r\n        for (uint i = 0; i < ships.length; i++) {\r\n          if (ship2owner[i] == msg.sender) {\r\n            result[counter] = i;\r\n            counter++;\r\n          }\r\n        }\r\n        return result;\r\n    }\r\n    function getcdkey(uint _id) public view returns(string){\r\n        return ships[_id];\r\n    }\r\n\r\n\r\n}\r\n",
  "sourcePath": "E:\\UBL\\海军工厂\\EtherWarship_eth\\contracts\\getHNP.sol",
  "compiler": {
    "name": "solc",
    "version": "0.4.18+commit.9cf6e910.Emscripten.clang"
  },
  "schemaVersion": "1.0.1",
  "updatedAt": "2018-01-28T10:39:53.407Z"
}